{
  "contractName": "Voting",
  "abi": [
    {
      "constant": true,
      "inputs": [
        {
          "name": "_num",
          "type": "uint256"
        }
      ],
      "name": "add",
      "outputs": [
        {
          "name": "",
          "type": "uint256"
        }
      ],
      "payable": false,
      "stateMutability": "pure",
      "type": "function"
    },
    {
      "constant": false,
      "inputs": [],
      "name": "newOption",
      "outputs": [],
      "payable": false,
      "stateMutability": "nonpayable",
      "type": "function"
    },
    {
      "constant": true,
      "inputs": [
        {
          "name": "",
          "type": "uint256"
        }
      ],
      "name": "options",
      "outputs": [
        {
          "name": "id",
          "type": "uint256"
        },
        {
          "name": "point",
          "type": "uint8"
        }
      ],
      "payable": false,
      "stateMutability": "view",
      "type": "function"
    }
  ],
  "bytecode": "0x6060604052341561000f57600080fd5b6102518061001e6000396000f300606060405260043610610057576000357c0100000000000000000000000000000000000000000000000000000000900463ffffffff1680631003e2d21461005c57806322746acb14610093578063409e2205146100a8575b600080fd5b341561006757600080fd5b61007d60048080359060200190919050506100ec565b6040518082815260200191505060405180910390f35b341561009e57600080fd5b6100a66100fc565b005b34156100b357600080fd5b6100c96004808035906020019091905050610178565b604051808381526020018260ff1660ff1681526020019250505060405180910390f35b6000818060010192509050919050565b6000808054905090506000805480600101828161011991906101b8565b916000526020600020906002020160006040805190810160405280858152602001600060ff1681525090919091506000820151816000015560208201518160010160006101000a81548160ff021916908360ff16021790555050505050565b60008181548110151561018757fe5b90600052602060002090600202016000915090508060000154908060010160009054906101000a900460ff16905082565b8154818355818115116101e5576002028160020283600052602060002091820191016101e491906101ea565b5b505050565b61022291905b8082111561021e576000808201600090556001820160006101000a81549060ff0219169055506002016101f0565b5090565b905600a165627a7a723058200baf4855f517a4b6cef79a89506d92635ce260d16af922a8700f97d3253bb3e10029",
  "source": "pragma solidity ^0.4.17;\n\ncontract Voting {\n    struct Vote {\n        uint voteId;\n        uint8 amount; \n    }\n\n    struct Option {\n        uint id;\n        uint8 point;\n    }\n\n    struct Theme {\n        uint id;\n        uint[] optionsIdInTheme;\n    }\n\n    Option[] public options;\n\n    function newOption() external {\n        uint id = options.length;\n        options.push(Option(id, 0));\n    }\n\n    function add(uint _num) public pure returns(uint) {\n        return _num++;\n    } \n}",
  "sourcePath": "/Users/naokiyumura/develop/ethereum/dapp/truffle-practice/contracts/Voting.sol",
  "compiler": {
    "name": "solc",
    "version": "0.4.18+commit.9cf6e910.Emscripten.clang"
  },
  "schemaVersion": "1.0.1",
  "updatedAt": "2018-05-17T13:47:39.100Z"
}