{
  "contractName": "Voting",
  "abi": [
    {
      "constant": false,
      "inputs": [],
      "name": "newOption",
      "outputs": [
        {
          "name": "",
          "type": "uint256"
        }
      ],
      "payable": false,
      "stateMutability": "nonpayable",
      "type": "function"
    },
    {
      "constant": true,
      "inputs": [
        {
          "name": "",
          "type": "uint256"
        }
      ],
      "name": "options",
      "outputs": [
        {
          "name": "id",
          "type": "uint256"
        },
        {
          "name": "point",
          "type": "uint8"
        }
      ],
      "payable": false,
      "stateMutability": "view",
      "type": "function"
    }
  ],
  "bytecode": "0x6060604052341561000f57600080fd5b6102178061001e6000396000f30060606040526004361061004c576000357c0100000000000000000000000000000000000000000000000000000000900463ffffffff16806322746acb14610051578063409e22051461007a575b600080fd5b341561005c57600080fd5b6100646100be565b6040518082815260200191505060405180910390f35b341561008557600080fd5b61009b600480803590602001909190505061013e565b604051808381526020018260ff1660ff1681526020019250505060405180910390f35b6000806000805490509050600080548060010182816100dd919061017e565b916000526020600020906002020160006040805190810160405280858152602001600060ff1681525090919091506000820151816000015560208201518160010160006101000a81548160ff021916908360ff160217905550505091505090565b60008181548110151561014d57fe5b90600052602060002090600202016000915090508060000154908060010160009054906101000a900460ff16905082565b8154818355818115116101ab576002028160020283600052602060002091820191016101aa91906101b0565b5b505050565b6101e891905b808211156101e4576000808201600090556001820160006101000a81549060ff0219169055506002016101b6565b5090565b905600a165627a7a723058208910a81ed2fe725e0609cc4bc5256ae70f8951a38ead09319d15776e68d2d8960029",
  "source": "pragma solidity ^0.4.17;\n\ncontract Voting {\n    struct Vote {\n        uint voteId;\n        uint8 amount; \n    }\n\n    struct Option {\n        uint id;\n        uint8 point;\n    }\n\n    struct Theme {\n        uint id;\n        uint[] optionsIdInTheme;\n    }\n\n    Option[] public options;\n\n    function newOption() external returns(uint) {\n        uint id = options.length;\n        return options.push(Option(id, 0));\n    }\n}",
  "sourcePath": "/Users/naokiyumura/develop/ethereum/dapp/truffle-practice/contracts/Voting.sol",
  "compiler": {
    "name": "solc",
    "version": "0.4.18+commit.9cf6e910.Emscripten.clang"
  },
  "schemaVersion": "1.0.1",
  "updatedAt": "2018-05-23T16:17:21.402Z"
}